{
  "_format": "hh-sol-artifact-1",
  "contractName": "FitCoinToken",
  "sourceName": "contracts/FitCoinToken.sol",
  "abi": [
    {
      "inputs": [],
      "stateMutability": "nonpayable",
      "type": "constructor"
    },
    {
      "inputs": [
        {
          "internalType": "address",
          "name": "spender",
          "type": "address"
        },
        {
          "internalType": "uint256",
          "name": "allowance",
          "type": "uint256"
        },
        {
          "internalType": "uint256",
          "name": "needed",
          "type": "uint256"
        }
      ],
      "name": "ERC20InsufficientAllowance",
      "type": "error"
    },
    {
      "inputs": [
        {
          "internalType": "address",
          "name": "sender",
          "type": "address"
        },
        {
          "internalType": "uint256",
          "name": "balance",
          "type": "uint256"
        },
        {
          "internalType": "uint256",
          "name": "needed",
          "type": "uint256"
        }
      ],
      "name": "ERC20InsufficientBalance",
      "type": "error"
    },
    {
      "inputs": [
        {
          "internalType": "address",
          "name": "approver",
          "type": "address"
        }
      ],
      "name": "ERC20InvalidApprover",
      "type": "error"
    },
    {
      "inputs": [
        {
          "internalType": "address",
          "name": "receiver",
          "type": "address"
        }
      ],
      "name": "ERC20InvalidReceiver",
      "type": "error"
    },
    {
      "inputs": [
        {
          "internalType": "address",
          "name": "sender",
          "type": "address"
        }
      ],
      "name": "ERC20InvalidSender",
      "type": "error"
    },
    {
      "inputs": [
        {
          "internalType": "address",
          "name": "spender",
          "type": "address"
        }
      ],
      "name": "ERC20InvalidSpender",
      "type": "error"
    },
    {
      "inputs": [
        {
          "internalType": "address",
          "name": "owner",
          "type": "address"
        }
      ],
      "name": "OwnableInvalidOwner",
      "type": "error"
    },
    {
      "inputs": [
        {
          "internalType": "address",
          "name": "account",
          "type": "address"
        }
      ],
      "name": "OwnableUnauthorizedAccount",
      "type": "error"
    },
    {
      "anonymous": false,
      "inputs": [
        {
          "indexed": true,
          "internalType": "address",
          "name": "user",
          "type": "address"
        },
        {
          "indexed": false,
          "internalType": "string",
          "name": "activityName",
          "type": "string"
        },
        {
          "indexed": false,
          "internalType": "uint256",
          "name": "tokensEarned",
          "type": "uint256"
        },
        {
          "indexed": false,
          "internalType": "uint256",
          "name": "timestamp",
          "type": "uint256"
        }
      ],
      "name": "ActivityCompleted",
      "type": "event"
    },
    {
      "anonymous": false,
      "inputs": [
        {
          "indexed": true,
          "internalType": "address",
          "name": "owner",
          "type": "address"
        },
        {
          "indexed": true,
          "internalType": "address",
          "name": "spender",
          "type": "address"
        },
        {
          "indexed": false,
          "internalType": "uint256",
          "name": "value",
          "type": "uint256"
        }
      ],
      "name": "Approval",
      "type": "event"
    },
    {
      "anonymous": false,
      "inputs": [
        {
          "indexed": true,
          "internalType": "address",
          "name": "previousOwner",
          "type": "address"
        },
        {
          "indexed": true,
          "internalType": "address",
          "name": "newOwner",
          "type": "address"
        }
      ],
      "name": "OwnershipTransferred",
      "type": "event"
    },
    {
      "anonymous": false,
      "inputs": [
        {
          "indexed": true,
          "internalType": "address",
          "name": "user",
          "type": "address"
        },
        {
          "indexed": false,
          "internalType": "string",
          "name": "rewardName",
          "type": "string"
        },
        {
          "indexed": false,
          "internalType": "uint256",
          "name": "tokensBurned",
          "type": "uint256"
        },
        {
          "indexed": false,
          "internalType": "uint256",
          "name": "timestamp",
          "type": "uint256"
        }
      ],
      "name": "RewardRedeemed",
      "type": "event"
    },
    {
      "anonymous": false,
      "inputs": [
        {
          "indexed": true,
          "internalType": "address",
          "name": "from",
          "type": "address"
        },
        {
          "indexed": true,
          "internalType": "address",
          "name": "to",
          "type": "address"
        },
        {
          "indexed": false,
          "internalType": "uint256",
          "name": "value",
          "type": "uint256"
        }
      ],
      "name": "Transfer",
      "type": "event"
    },
    {
      "inputs": [
        {
          "internalType": "address",
          "name": "owner",
          "type": "address"
        },
        {
          "internalType": "address",
          "name": "spender",
          "type": "address"
        }
      ],
      "name": "allowance",
      "outputs": [
        {
          "internalType": "uint256",
          "name": "",
          "type": "uint256"
        }
      ],
      "stateMutability": "view",
      "type": "function"
    },
    {
      "inputs": [
        {
          "internalType": "address",
          "name": "spender",
          "type": "address"
        },
        {
          "internalType": "uint256",
          "name": "value",
          "type": "uint256"
        }
      ],
      "name": "approve",
      "outputs": [
        {
          "internalType": "bool",
          "name": "",
          "type": "bool"
        }
      ],
      "stateMutability": "nonpayable",
      "type": "function"
    },
    {
      "inputs": [
        {
          "internalType": "address",
          "name": "account",
          "type": "address"
        }
      ],
      "name": "balanceOf",
      "outputs": [
        {
          "internalType": "uint256",
          "name": "",
          "type": "uint256"
        }
      ],
      "stateMutability": "view",
      "type": "function"
    },
    {
      "inputs": [],
      "name": "decimals",
      "outputs": [
        {
          "internalType": "uint8",
          "name": "",
          "type": "uint8"
        }
      ],
      "stateMutability": "view",
      "type": "function"
    },
    {
      "inputs": [
        {
          "internalType": "string",
          "name": "activityName",
          "type": "string"
        },
        {
          "internalType": "uint256",
          "name": "tokensToEarn",
          "type": "uint256"
        }
      ],
      "name": "logActivity",
      "outputs": [],
      "stateMutability": "nonpayable",
      "type": "function"
    },
    {
      "inputs": [
        {
          "internalType": "address",
          "name": "to",
          "type": "address"
        },
        {
          "internalType": "uint256",
          "name": "amount",
          "type": "uint256"
        }
      ],
      "name": "mint",
      "outputs": [],
      "stateMutability": "nonpayable",
      "type": "function"
    },
    {
      "inputs": [],
      "name": "name",
      "outputs": [
        {
          "internalType": "string",
          "name": "",
          "type": "string"
        }
      ],
      "stateMutability": "view",
      "type": "function"
    },
    {
      "inputs": [],
      "name": "owner",
      "outputs": [
        {
          "internalType": "address",
          "name": "",
          "type": "address"
        }
      ],
      "stateMutability": "view",
      "type": "function"
    },
    {
      "inputs": [
        {
          "internalType": "string",
          "name": "rewardName",
          "type": "string"
        },
        {
          "internalType": "uint256",
          "name": "tokensToBurn",
          "type": "uint256"
        }
      ],
      "name": "redeemReward",
      "outputs": [],
      "stateMutability": "nonpayable",
      "type": "function"
    },
    {
      "inputs": [],
      "name": "renounceOwnership",
      "outputs": [],
      "stateMutability": "nonpayable",
      "type": "function"
    },
    {
      "inputs": [],
      "name": "symbol",
      "outputs": [
        {
          "internalType": "string",
          "name": "",
          "type": "string"
        }
      ],
      "stateMutability": "view",
      "type": "function"
    },
    {
      "inputs": [],
      "name": "totalSupply",
      "outputs": [
        {
          "internalType": "uint256",
          "name": "",
          "type": "uint256"
        }
      ],
      "stateMutability": "view",
      "type": "function"
    },
    {
      "inputs": [
        {
          "internalType": "address",
          "name": "to",
          "type": "address"
        },
        {
          "internalType": "uint256",
          "name": "value",
          "type": "uint256"
        }
      ],
      "name": "transfer",
      "outputs": [
        {
          "internalType": "bool",
          "name": "",
          "type": "bool"
        }
      ],
      "stateMutability": "nonpayable",
      "type": "function"
    },
    {
      "inputs": [
        {
          "internalType": "address",
          "name": "from",
          "type": "address"
        },
        {
          "internalType": "address",
          "name": "to",
          "type": "address"
        },
        {
          "internalType": "uint256",
          "name": "value",
          "type": "uint256"
        }
      ],
      "name": "transferFrom",
      "outputs": [
        {
          "internalType": "bool",
          "name": "",
          "type": "bool"
        }
      ],
      "stateMutability": "nonpayable",
      "type": "function"
    },
    {
      "inputs": [
        {
          "internalType": "address",
          "name": "newOwner",
          "type": "address"
        }
      ],
      "name": "transferOwnership",
      "outputs": [],
      "stateMutability": "nonpayable",
      "type": "function"
    }
  ],
  "bytecode": "0x60806040523480156200001157600080fd5b5033604051806040016040528060078152602001662334ba21b7b4b760c91b8152506040518060400160405280600381526020016211925560ea1b815250816003908162000060919062000344565b5060046200006f828262000344565b5050506001600160a01b038116620000a257604051631e4fbdf760e01b8152600060048201526024015b60405180910390fd5b620000ad81620000dc565b50620000d633620000c16012600a62000525565b620000d090620f42406200053d565b6200012e565b6200056d565b600580546001600160a01b038381166001600160a01b0319831681179093556040519116919082907f8be0079c531659141344cd1fd0a4f28419497f9722a3daafe3b4186f6b6457e090600090a35050565b6001600160a01b0382166200015a5760405163ec442f0560e01b81526000600482015260240162000099565b62000168600083836200016c565b5050565b6001600160a01b0383166200019b5780600260008282546200018f919062000557565b909155506200020f9050565b6001600160a01b03831660009081526020819052604090205481811015620001f05760405163391434e360e21b81526001600160a01b0385166004820152602481018290526044810183905260640162000099565b6001600160a01b03841660009081526020819052604090209082900390555b6001600160a01b0382166200022d576002805482900390556200024c565b6001600160a01b03821660009081526020819052604090208054820190555b816001600160a01b0316836001600160a01b03167fddf252ad1be2c89b69c2b068fc378daa952ba7f163c4a11628f55a4df523b3ef836040516200029291815260200190565b60405180910390a3505050565b634e487b7160e01b600052604160045260246000fd5b600181811c90821680620002ca57607f821691505b602082108103620002eb57634e487b7160e01b600052602260045260246000fd5b50919050565b601f8211156200033f57600081815260208120601f850160051c810160208610156200031a5750805b601f850160051c820191505b818110156200033b5782815560010162000326565b5050505b505050565b81516001600160401b038111156200036057620003606200029f565b6200037881620003718454620002b5565b84620002f1565b602080601f831160018114620003b05760008415620003975750858301515b600019600386901b1c1916600185901b1785556200033b565b600085815260208120601f198616915b82811015620003e157888601518255948401946001909101908401620003c0565b5085821015620004005787850151600019600388901b60f8161c191681555b5050505050600190811b01905550565b634e487b7160e01b600052601160045260246000fd5b600181815b80851115620004675781600019048211156200044b576200044b62000410565b808516156200045957918102915b93841c93908002906200042b565b509250929050565b60008262000480575060016200051f565b816200048f575060006200051f565b8160018114620004a85760028114620004b357620004d3565b60019150506200051f565b60ff841115620004c757620004c762000410565b50506001821b6200051f565b5060208310610133831016604e8410600b8410161715620004f8575081810a6200051f565b62000504838362000426565b80600019048211156200051b576200051b62000410565b0290505b92915050565b60006200053660ff8416836200046f565b9392505050565b80820281158282048414176200051f576200051f62000410565b808201808211156200051f576200051f62000410565b610d4a806200057d6000396000f3fe608060405234801561001057600080fd5b50600436106100f55760003560e01c8063715018a611610097578063c2e0182911610066578063c2e01829146101eb578063d98512d7146101fe578063dd62ed3e14610211578063f2fde38b1461024a57600080fd5b8063715018a6146101ad5780638da5cb5b146101b557806395d89b41146101d0578063a9059cbb146101d857600080fd5b806323b872dd116100d357806323b872dd1461014d578063313ce5671461016057806340c10f191461016f57806370a082311461018457600080fd5b806306fdde03146100fa578063095ea7b31461011857806318160ddd1461013b575b600080fd5b61010261025d565b60405161010f91906109cd565b60405180910390f35b61012b610126366004610a03565b6102ef565b604051901515815260200161010f565b6002545b60405190815260200161010f565b61012b61015b366004610a2d565b610309565b6040516012815260200161010f565b61018261017d366004610a03565b61032d565b005b61013f610192366004610a69565b6001600160a01b031660009081526020819052604090205490565b610182610343565b6005546040516001600160a01b03909116815260200161010f565b610102610357565b61012b6101e6366004610a03565b610366565b6101826101f9366004610a9a565b610374565b61018261020c366004610a9a565b610482565b61013f61021f366004610b4f565b6001600160a01b03918216600090815260016020908152604080832093909416825291909152205490565b610182610258366004610a69565b61056f565b60606003805461026c90610b82565b80601f016020809104026020016040519081016040528092919081815260200182805461029890610b82565b80156102e55780601f106102ba576101008083540402835291602001916102e5565b820191906000526020600020905b8154815290600101906020018083116102c857829003601f168201915b5050505050905090565b6000336102fd8185856105ad565b60019150505b92915050565b6000336103178582856105bf565b61032285858561063e565b506001949350505050565b61033561069d565b61033f82826106ca565b5050565b61034b61069d565b6103556000610700565b565b60606004805461026c90610b82565b6000336102fd81858561063e565b600081116103c95760405162461bcd60e51b815260206004820152601d60248201527f546f6b656e73206d7573742062652067726561746572207468616e203000000060448201526064015b60405180910390fd5b6103d56012600a610cb6565b6103e0906064610cc5565b81111561042f5760405162461bcd60e51b815260206004820152601b60248201527f4d61782031303020746f6b656e7320706572206163746976697479000000000060448201526064016103c0565b61043933826106ca565b336001600160a01b03167fb12259c4d31e6fa434e04357e31bf0a896cae274ba7faa06533345abef99eac583834260405161047693929190610cdc565b60405180910390a25050565b600081116104d25760405162461bcd60e51b815260206004820152601d60248201527f546f6b656e73206d7573742062652067726561746572207468616e203000000060448201526064016103c0565b336000908152602081905260409020548111156105285760405162461bcd60e51b8152602060048201526014602482015273496e73756666696369656e742062616c616e636560601b60448201526064016103c0565b6105323382610752565b336001600160a01b03167f554af7ae9e82d9f7455eb01567488b674d16113178f7982521fd1e934f194cb083834260405161047693929190610cdc565b61057761069d565b6001600160a01b0381166105a157604051631e4fbdf760e01b8152600060048201526024016103c0565b6105aa81610700565b50565b6105ba8383836001610788565b505050565b6001600160a01b03838116600090815260016020908152604080832093861683529290522054600019811015610638578181101561062957604051637dc7a0d960e11b81526001600160a01b038416600482015260248101829052604481018390526064016103c0565b61063884848484036000610788565b50505050565b6001600160a01b03831661066857604051634b637e8f60e11b8152600060048201526024016103c0565b6001600160a01b0382166106925760405163ec442f0560e01b8152600060048201526024016103c0565b6105ba83838361085d565b6005546001600160a01b031633146103555760405163118cdaa760e01b81523360048201526024016103c0565b6001600160a01b0382166106f45760405163ec442f0560e01b8152600060048201526024016103c0565b61033f6000838361085d565b600580546001600160a01b038381166001600160a01b0319831681179093556040519116919082907f8be0079c531659141344cd1fd0a4f28419497f9722a3daafe3b4186f6b6457e090600090a35050565b6001600160a01b03821661077c57604051634b637e8f60e11b8152600060048201526024016103c0565b61033f8260008361085d565b6001600160a01b0384166107b25760405163e602df0560e01b8152600060048201526024016103c0565b6001600160a01b0383166107dc57604051634a1406b160e11b8152600060048201526024016103c0565b6001600160a01b038085166000908152600160209081526040808320938716835292905220829055801561063857826001600160a01b0316846001600160a01b03167f8c5be1e5ebec7d5bd14f71427d1e84f3dd0314c0f7b2291e5b200ac8c7c3b9258460405161084f91815260200190565b60405180910390a350505050565b6001600160a01b03831661088857806002600082825461087d9190610d01565b909155506108fa9050565b6001600160a01b038316600090815260208190526040902054818110156108db5760405163391434e360e21b81526001600160a01b038516600482015260248101829052604481018390526064016103c0565b6001600160a01b03841660009081526020819052604090209082900390555b6001600160a01b03821661091657600280548290039055610935565b6001600160a01b03821660009081526020819052604090208054820190555b816001600160a01b0316836001600160a01b03167fddf252ad1be2c89b69c2b068fc378daa952ba7f163c4a11628f55a4df523b3ef8360405161097a91815260200190565b60405180910390a3505050565b6000815180845260005b818110156109ad57602081850181015186830182015201610991565b506000602082860101526020601f19601f83011685010191505092915050565b6020815260006109e06020830184610987565b9392505050565b80356001600160a01b03811681146109fe57600080fd5b919050565b60008060408385031215610a1657600080fd5b610a1f836109e7565b946020939093013593505050565b600080600060608486031215610a4257600080fd5b610a4b846109e7565b9250610a59602085016109e7565b9150604084013590509250925092565b600060208284031215610a7b57600080fd5b6109e0826109e7565b634e487b7160e01b600052604160045260246000fd5b60008060408385031215610aad57600080fd5b823567ffffffffffffffff80821115610ac557600080fd5b818501915085601f830112610ad957600080fd5b813581811115610aeb57610aeb610a84565b604051601f8201601f19908116603f01168101908382118183101715610b1357610b13610a84565b81604052828152886020848701011115610b2c57600080fd5b826020860160208301376000602093820184015298969091013596505050505050565b60008060408385031215610b6257600080fd5b610b6b836109e7565b9150610b79602084016109e7565b90509250929050565b600181811c90821680610b9657607f821691505b602082108103610bb657634e487b7160e01b600052602260045260246000fd5b50919050565b634e487b7160e01b600052601160045260246000fd5b600181815b80851115610c0d578160001904821115610bf357610bf3610bbc565b80851615610c0057918102915b93841c9390800290610bd7565b509250929050565b600082610c2457506001610303565b81610c3157506000610303565b8160018114610c475760028114610c5157610c6d565b6001915050610303565b60ff841115610c6257610c62610bbc565b50506001821b610303565b5060208310610133831016604e8410600b8410161715610c90575081810a610303565b610c9a8383610bd2565b8060001904821115610cae57610cae610bbc565b029392505050565b60006109e060ff841683610c15565b808202811582820484141761030357610303610bbc565b606081526000610cef6060830186610987565b60208301949094525060400152919050565b8082018082111561030357610303610bbc56fea26469706673582212200c7632924158d7d518707892291006281ada5484c2d6df5cde2c081f5f6e304e64736f6c63430008140033",
  "linkReferences": {},
  "deployedLinkReferences": {}
}